:04000000FEEF3FF0E0
:10080000003F065B4F666D7D077F67000F0EC16E70
:100810009368956A010E946E8B6A8C6A82A013EFBE
:1008200004F015EF04F00EEF04F0040E0A6E0C0E47
:10083000096E340EE82EFED7092EFCD70A2EFAD701
:1008400082A025EF04F027EF04F00EEF04F081CF33
:100850000EF00E50B9EC04F082B031EF04F033EF3B
:1008600004F02CEF04F0040E0A6E0C0E096E340E28
:10087000E82EFED7092EFCD70A2EFAD7000E0D6EF1
:10088000000E0C6E4BEF04F00C50B9EC04F0CCEC05
:1008900004F00C4A0D2A0E50096E0A6A0C50095CCD
:1008A0000A50800A0B6E0D50800A0B58D8B05BEFCF
:1008B00004F05DEF04F044EF04F08B820EEF04F0DF
:1008C000FEEF3FF0066A02BE6AEF04F068EF04F044
:1008D00070EF04F0016C021ED8B0022A010E066E01
:1008E00004BE77EF04F075EF04F07BEF04F0036CC7
:1008F000041ED8B0042A03500410D8B482EF04F0C8
:1009000084EF04F0A8EF04F0010E056E8CEF04F004
:10091000D89003360436052A04AE91EF04F093EF25
:1009200004F088EF04F00350015C04500258D8A092
:100930009CEF04F09EEF04F0A2EF04F00350015E80
:100940000450025AD89004320332052E93EF04F07B
:100950000650D8B4AEEF04F0B0EF04F0B4EF04F0FA
:10096000016C021ED8B0022A01C001F002C002F0E0
:100970001200086E08C001F0026A000E046E0A0E32
:10098000036E62EC04F00150010F076E07C0F6FF22
:100990000800F5CF8CFF1200026A9C0E016ED70E84
:1009A000E82EFED7012EFCD70000022A630E026457
:1009B000DCEF04F0DEEF04F0CDEF04F01200000EE7
:0C09C000F86E080EF76E000106EF04F060
:047FFC00DFEF04F0BF
:020000040030CA
:08000000210E1F1EFF8181FF8C
:00000001FF
