:04000000FEEF3FF0E0
:0F080000003F065B4F666D7D077F67F9C80000FC
:100810008EEC04F082B00FEF04F011EF04F053EF10
:1008200004F04AEF04F081CF07F00F0E07160750CF
:10083000086E096A81CF07F0073A0F0E07160750B6
:100840000A6E0B6A095009E10A0E085CD8A02BEF6A
:1008500004F02DEF04F031EF04F0000E096E0A0EE3
:10086000086E0B5009E10A0E0A5CD8A03AEF04F0BA
:100870003CEF04F040EF04F0000E0B6E0A0E0A6E1F
:1008800008C001F009C002F00AC003F00BC004F078
:1008900061EC04F082A04FEF04F051EF04F013EF8D
:1008A00004F00AEF04F0000E026E000E016E000E5E
:1008B000046E000E036E61EC04F00AEF04F0FEEF2C
:1008C0003FF08B6A0150010F056E05C0F6FF08006E
:1008D000F5CF8CFF100E8B6E0D0E066E2D0E056E75
:1008E000D80EE82EFED7052EFCD7062EFAD78B6A37
:1008F0000350010F056E05C0F6FF0800F5CF8CFF11
:10090000200E8B6E0D0E066E2D0E056ED80EE82E87
:10091000FED7052EFCD7062EFAD712000F0EC16E99
:100920009368F19E010E946E956AC69A1200000EAD
:0C093000F86E080EF76E000108EF04F0EE
:047FFC0097EF04F007
:020000040030CA
:02000000210ECF
:02000400FF8378
:00000001FF
