:04000000FEEF3FF0E0
:0F080000003F065B4F666D7D077F67F9140000B0
:10081000DAEC05F0000E146E000E136E000E166E6C
:10082000000E156E000E0E6E000E0D6E82B01BEFE8
:1008300004F01DEF04F0E5EF04F05EEF04F081CF6B
:1008400009F00F0E09160950136E146A81CF09F0D2
:10085000093A0F0E09160950156E166A145009E16F
:100860000A0E135CD8A037EF04F039EF04F041EF23
:1008700004F0000E146E0A0E136E000E0E6E010EC2
:100880000D6E165009E10A0E155CD8A04AEF04F06F
:100890004CEF04F054EF04F0000E166E0A0E156EC5
:1008A000000E0E6E010E0D6E13C001F014C002F0AA
:1008B00015C003F016C004F0ABEC05F082A063EFA6
:1008C00004F065EF04F01FEF04F00D040E10D8A43F
:1008D0006CEF04F06EEF04F070EF04F012EF04F030
:1008E0000A0E1302F3CF09F0F4CF0AF01402F3500A
:1008F0000A261550092616500A22010E09240B6EED
:10090000000E0A200C6E000E126E000E116EC5EF66
:1009100004F011C001F012C002F0000E046E0A0EC5
:10092000036EF3EC04F001C013F002C014F011C028
:1009300001F012C002F0000E046E0A0E036E54ECB9
:1009400005F001C015F002C016F0000E106E000E8A
:100950000F6E13C001F014C002F015C003F016C0F2
:1009600004F0ABEC05F00F4A102A10BEC1EF04F002
:10097000105009E1190E0F5CD8A0C1EF04F0C3EFCD
:1009800004F0A9EF04F0114A122A0B50115C0C502C
:100990001258D8A0CEEF04F0D0EF04F089EF04F0A5
:1009A000DCEF04F013C001F014C002F015C003F036
:1009B00016C004F0ABEC05F082B0E1EF04F0E3EF19
:1009C00004F0D2EF04F016EF04F0000E026E000EF9
:1009D000016E000E046E000E036EABEC05F016EF18
:1009E00004F0FEEF3FF0066A04BEFBEF04F0F9EFFF
:1009F00004F001EF05F0036C041ED8B0042A010EC8
:100A0000066E02BE08EF05F006EF05F00EEF05F0EA
:100A1000016C021ED8B0022A010E061A000E086EE2
:100A2000000E076E03500410D8B419EF05F01BEF49
:100A300005F043EF05F0010E056E23EF05F0D890A9
:100A400003360436052A04AE28EF05F02AEF05F038
:100A50001FEF05F0D890073608360350015C0450AC
:100A60000258D8A036EF05F038EF05F03DEF05F05D
:100A70000350015E0450025A0780D89004320332BA
:100A8000052E2AEF05F00650D8B449EF05F04BEFDC
:100A900005F04FEF05F0076C081ED8B0082A07C014
:100AA00001F008C002F01200066A02BE5CEF05F019
:100AB0005AEF05F062EF05F0016C021ED8B0022A71
:100AC000010E066E04BE69EF05F067EF05F06DEFED
:100AD00005F0036C041ED8B0042A03500410D8B4E7
:100AE00074EF05F076EF05F09AEF05F0010E056E54
:100AF0007EEF05F0D89003360436052A04AE83EF66
:100B000005F085EF05F07AEF05F00350015C045025
:100B10000258D8A08EEF05F090EF05F094EF05F0A5
:100B20000350015E0450025AD89004320332052E5D
:100B300085EF05F00650D8B4A0EF05F0A2EF05F060
:100B4000A6EF05F0016C021ED8B0022A01C001F028
:100B500002C002F012008B6A0150010F056E05C041
:100B6000F6FF0800F5CF8CFF100E8B6E020E066E9E
:100B7000380E056EAD0EE82EFED7052EFCD7062EDC
:100B8000FAD700008B6A0350010F056E05C0F6FF0F
:100B90000800F5CF8CFF200E8B6E020E066E380E0D
:100BA000056EAD0EE82EFED7052EFCD7062EFAD721
:100BB000000012000F0EC16E9368F19E010E946E3C
:100BC000956AC69A1200000EF86E080EF76E0001C4
:040BD00008EF04F036
:047FFC00E3EF05F0BA
:020000040030CA
:02000000210ECF
:02000400FF8378
:00000001FF
