:04000000FEEF3FF0E0
:1008000000008DEC04F081CF1BF00F0E1B161B5067
:100810001C6E1D6A1DBE18EF04F01D5007E10A0E84
:100820001C5CD8B016EF04F018EF04F01AEF04F0D7
:100830001EEF04F0000E1D6E090E1C6E81CF1BF022
:10084000F00E1B161B501E6E1F6A1FBE33EF04F006
:100850001F5007E10A0E1E5CD8B031EF04F033EFF1
:1008600004F035EF04F039EF04F0000E1F6E090EAE
:100870001E6E1CC015F01DC016F01EC017F01FC064
:1008800018F047EC04F003EF04F0FEEF3FF08B6A42
:100890001550020DF350010FD96EDA6ADF508C6EDD
:1008A000100E8B6E1F0E1A6E710E196E1E0EE82E34
:1008B000FED7192EFCD71A2EFAD700D08B6A17C094
:1008C0008CFF200E8B6E1F0E1A6E710E196E1E0E8F
:1008D000E82EFED7192EFCD71A2EFAD700D0120018
:1008E000060EF66E090EF76E000EF86E00EE01F0C1
:1008F00010EE14F00900F5CFEEFFE550E150FAE1FB
:10090000000101EF04F03F0006005B004F006600AD
:100910006D007D007F00670000000F0EC16E9368C0
:0C092000F19E010E946E956AC69A1200BA
:047FFC0070EF04F02E
:020000040030CA
:02000000210ECF
:02000400FF8378
:00000001FF
