:04000000FEEF3FF0E0
:10080000000069EC04F081500F0B0C6E0CC08CFFE3
:100810003D0E066EE10E056E400EE82EFED7052E4B
:10082000FCD7062EFAD70A0E0C6019EF04F01BEF66
:1008300004F020EF04F00CC007F0086A24EF04F085
:10084000000E086E090E076E07C00CF08150F00B09
:100850000B6E0A0E0B602FEF04F031EF04F036EF51
:1008600004F00BC009F00A6A3AEF04F0000E0A6EB9
:10087000090E096E09C00BF00BC001F00C5045ECDD
:1008800004F003EF04F0FEEF3FF0046E8B6A04C047
:100890008CFF100E8B6E070E036E170E026E6A0E23
:1008A000E82EFED7022EFCD7032EFAD700D08B6A93
:1008B00001C08CFF200E8B6E070E036E170E026EAA
:1008C0006A0EE82EFED7022EFCD7032EFAD700D0F0
:1008D00012000F0EC16E9368F19E010E946E956A20
:0808E0001200000101EF04F019
:047FFC0071EF04F02D
:020000040030CA
:02000000210ECF
:02000400FF8378
:00000001FF
