:04000000FEEF3FF0E0
:10080000003F065B4F666D7D7D7F67D0070074EC0F
:1008100004F081500F0B0A6E0A0E0A6012EF04F00A
:1008200014EF04F019EF04F00AC006F0076A1DEF98
:1008300004F0000E076E090E066E06C00AF081383D
:100840000F0B0B6E0A0E0B6028EF04F02AEF04F07A
:100850002FEF04F00BC008F0096A33EF04F0000E2C
:10086000096E090E086E08C00BF00BC001F00A50AB
:1008700046EC04F09C0E056ED70EE82EFED7052E32
:10088000FCD7000009EF04F0FEEF3FF0046E8B6A26
:100890000450010F026E02C0F6FF0800F5CF8CFF76
:1008A000100E8B6E7A0E036EC10E026E820EE82E53
:1008B000FED7022EFCD7032EFAD78B6A0150010F08
:1008C000026E02C0F6FF0800F5CF8CFF200E8B6E83
:1008D0007A0E036EC10E026E820EE82EFED7022E35
:1008E000FCD7032EFAD712000F0EC16E9368F19E4B
:1008F000010E946E956AC69A1200000EF86E080EEC
:08090000F76E000107EF04F09F
:047FFC007DEF04F021
:020000040030CA
:02000000210ECF
:02000400FF8378
:00000001FF
